:020000040000FA
:060000008EEF00F012007B
:02002A000000D4
:04002C002A0EF66E34
:10003000000EF76E000EF86E00010900F550856F96
:100040000900F550866F03E1856701D03DD00900B6
:10005000F550806F0900F550816F0900F550826FEF
:1000600009000900F550E96E0900F550EA6E090033
:1000700009000900F550836F0900F550846F0900ED
:100080000900F6CF87F0F7CF88F0F8CF89F080C06D
:10009000F6FF81C0F7FF82C0F8FF0001835302E141
:1000A000845307E00900F550EE6E8307F8E28407F9
:1000B000F9D787C0F6FF88C0F7FF89C0F8FF0001B5
:0A00C0008507000E865BBFD7120013
:0600CA00FF0EE350036E7F
:1000D000EF0E01D0F30EE76EE72E6CEF00F00C0E82
:1000E000026EE76AE72E72EF00F0022E71EF00F069
:0800F000032E6AEF00F012007C
:0800F80009D88080C80EE66EF5
:1001000065EC00F0E5528090FFD712009B6A620E0A
:0C011000D36EC26A0F0EC16E926A12001C
:04011C0015EE00F0EC
:1001200025EE00F0F86A019C16EC00F09CEC00F063
:080130007CEC00F0FBD712008B
:020138001200B3
:00000001FF
