:020000040000fa
:080000000002040000000000f2
:020000040000fa
:100400008f8620000e7f22000e0188000000000071
:100410000c000700c06b2000010020001100070045
:10042000000020000000e000020032000000020096
:1004300000000000a2060200000000000040da00f8
:100440000000fe004440a900000020000000e00081
:100450000300320000002000a00188004440a800f2
:100460000000060091018800800078000000eb0089
:1004700015003700e280400032a0b4009101ba00bc
:10048000e280400032a0b4009102ba00e280400055
:1004900032a0b4000002eb00472bde00f507b200eb
:1004a000602ce10004003a000059eb008301e900f0
:1004b000fdff3e00040037006128e100010032002a
:1004c0000082eb00040007001101ba000200e00006
:1004d000e8ff3a00000006003159ba008301e90044
:1004e0000c0032002159ba008301e90008003200f3
:1004f0000400e00003003a00e280400032a0b400b3
:10050000f5ff370011d9ba008301e900faff3a007c
:100510008100e800e180400032a0b4000000060045
:100520000040da000000fe0020c2bf00664060000c
:10053000e64f500002003a00301180000000060033
:1005400030118000f00fb2000000060022c2bf0090
:10055000610060000000060000088800000006003e
:100560004211880000118800111188000000060067
:100570008560a9008580a900e7416000c419dd00fd
:10058000910a200091407800f2c8b30082c0600058
:1005900083c070008000fd00a9e0b7008000fd006e
:1005a000800178000307b200c419de00a10a200010
:1005b0009140780082cfb30082c0600083c0700099
:1005c0008000fd00aae0b7008000fd006801600027
:1005d0004311de004311dd005109200091407800f5
:1005e0000134a10082c070008000fd0095e0b700da
:1005f0008000fd000008b2004700de004400dd007e
:1006000051092000914078000144a10080c0700091
:100610000100780095e0b70000000600c2118800d4
:1006200080118800911188000000060087c0a90091
:1006300087e0a900e7416000310b2000914078007d
:1006400082cfb30082c0600083c070008000fd00d4
:10065000b3e0b7008000fd0001c7b3008141600036
:10066000310b200091407800f2c8b30082c06000d6
:1006700083c070008000fd00b3e0b7008000fd0083
:10068000680160004311de004611dd0071092000a1
:10069000914078000164a10082c070008000fd00dc
:1006a00097e0b7008000fd000008b2004700de00c0
:1006b0004700dd0071092000914078000174a1001d
:1006c00080c070000100780097e0b70000000600cd
:1006d0002110880030108800000006008600a90064
:1006e0008620a900e7416000c10a200091407800ff
:1006f00082cfb30082c0600083c070008000fd0024
:10070000ace0b7008000fd0001c7b300814160008c
:10071000c10a200091407800f2c8b30082c0600096
:1007200083c070008000fd00ace0b7008000fd00d9
:10073000680160004311de006109200091407800eb
:100740000104a10082c070008000fd0096e0b700a7
:100750008000fd000008b2004700de0000404000bd
:1007600061092000914078000114a10080c0700050
:100770000100780096e0b700000006000021ef00bd
:100780001108880020088800000006008460a90085
:10079000e7416000c419dd00510a20009140780053
:1007a000f2c8b30082c0600083c070008000fd000a
:1007b000a5e0b7008000fd00680060004300de0097
:1007c0004300dd0041092000914078000134a10080
:1007d00080c070000100780094e0b70000000600bf
:020000040000fa
:0200000401f009
:04000c00f8ff0000f9
:020000040000fa
:0200000401f009
:040010007fff00006e
:020000040000fa
:1000080090020000900200009002000090020000a0
:100018009002000090020000900200009002000090
:1000280090020000900200009002000046060000c6
:100038009002000090020000900200009002000070
:1000480090020000900200009002000006060000e6
:100058009002000090020000900200009002000050
:100068009002000090020000900200009002000040
:100078009002000090020000900200009002000030
:100088009002000090020000900200009002000020
:100098009002000090020000900200009002000010
:1000a8009002000090020000900200009002000000
:1000b80090020000900200009002000090020000f0
:1000c80090020000900200009002000090020000e0
:1000d80090020000900200009002000090020000d0
:1000e80090020000900200009002000090020000c0
:1000f80090020000900200009002000090020000b0
:10010800900200009002000090020000900200009f
:10011800900200009002000090020000900200008f
:10012800900200009002000090020000900200007f
:10013800900200009002000090020000900200006f
:10014800900200009002000090020000900200005f
:10015800900200009002000090020000900200004f
:10016800900200009002000090020000900200003f
:10017800900200009002000090020000900200002f
:10018800900200009002000090020000900200001f
:10019800900200009002000090020000900200000f
:1001a80090020000900200009002000090020000ff
:1001b80090020000900200009002000090020000ef
:1001c80090020000900200009002000090020000df
:1001d80090020000900200009002000090020000cf
:1001e80090020000900200009002000090020000bf
:0801f8009002000090020000db
:020000040000fa
:10020800900200009002000090020000900200009e
:10021800900200009002000090020000900200008e
:1002280090020000900200009002000046060000c4
:10023800900200009002000090020000900200006e
:1002480090020000900200009002000006060000e4
:10025800900200009002000090020000900200004e
:10026800900200009002000090020000900200003e
:10027800900200009002000090020000900200002e
:10028800900200009002000090020000900200001e
:10029800900200009002000090020000900200000e
:1002a80090020000900200009002000090020000fe
:1002b80090020000900200009002000090020000ee
:1002c80090020000900200009002000090020000de
:1002d80090020000900200009002000090020000ce
:1002e80090020000900200009002000090020000be
:1002f80090020000900200009002000090020000ae
:10030800900200009002000090020000900200009d
:10031800900200009002000090020000900200008d
:10032800900200009002000090020000900200007d
:10033800900200009002000090020000900200006d
:10034800900200009002000090020000900200005d
:10035800900200009002000090020000900200004d
:10036800900200009002000090020000900200003d
:10037800900200009002000090020000900200002d
:10038800900200009002000090020000900200001d
:10039800900200009002000090020000900200000d
:1003a80090020000900200009002000090020000fd
:1003b80090020000900200009002000090020000ed
:1003c80090020000900200009002000090020000dd
:1003d80090020000900200009002000090020000cd
:1003e80090020000900200009002000090020000bd
:0803f8009002000090020000d9
:020000040000fa
:1007e0000400fa0090022000303a880044c7bf009d
:1007f000f043b20044e7b700417420009140780014
:1008000000ceb30000c0600044e7b7001200200033
:1008100081072000a009200033742000814978005e
:10082000804978008249780012002000610420008d
:1008300070052000237420008149780080497800e9
:100840008249780043c7bf000047b200f04f500014
:10085000fcff3a0042c7bf000042b2000004e000c3
:10086000fcff3200b0472700e1212400204388002c
:100870003143880000c62f0000168800b0702c009d
:10088000401688008000200080168800802020000c
:10089000100798001e019000d175210000692c00fe
:1008a0002fff0700e0f52f0031ff07004010200068
:1008b000100798001e019000d175210000692c00de
:1008c00056ff070060f52f0058ff07000000eb00ff
:1008d000000f78009e007800d0a12f007cff070059
:1008e000f0f02f007dff07001127200090fa2f0065
:1008f000a2ff07000000eb0017ff0700b0ff2f006a
:10090000a2ff07000080fa00000006000200fa00c3
:10091000004f78001e00fb00610060000004e00052
:1009200002003200d322a80001003700d322a90020
:100930001e00fb000000d100610060000004e00028
:1009400002003200d302a80001003700d302a90040
:100950001e00fb004200de00610060000004e000b9
:1009600002003200d2e2a80001003700d2e2a90062
:100970001e00fb004300de00610060000004e00098
:1009800002003200d2c2a80001003700d2c2a90082
:100990001e00fb004400de00610060000004e00077
:1009a00002003200cae2a80001003700cae2a90032
:1009b0001e00fb004500de00610060000004e00056
:1009c00002003200cac2a80001003700cac2a90052
:1009d0001e00fb004600de00610060000004e00035
:1009e00002003200caa2a80001003700caa2a90072
:1009f0001e04e00002003d00d2a2a8000100370062
:100a0000d2a2a9001e00fb004800de0061006000c9
:100a10000004e00002003200d282a800010037008a
:100a2000d282a9000080fa00000006000200fa004d
:100a3000004f780010c0b3009e4f1000020032003b
:100a40001e04e0000a003a001e4078006140600089
:100a5000614060004201dd00312c200091407800af
:100a6000b0cfb30000c0600002407000c3e2b70026
:100a70000080fa00000006000200fa00004f780033
:100a800010c0b3009e4f1000020032001e04e000b0
:100a90000a003a001e40780061406000614060003a
:100aa0004401dd00212c200091407800f0ceb300fd
:100ab00000c0600002407000c2e2b7000080fa008f
:100ac000000006000000fa0000c8bf00fe4f500002
:100ad000030036000040eb0000e8b70003003700d9
:100ae00000c8bf000040e80000e8b70000c8bf0031
:100af0000080fb0085ff07000080fa000000060070
:100b00000000fa0022c8bf0043e8b70024c8bf00b5
:100b100044e8b70026c8bf0045e8b70028c8bf00b2
:100b200046e8b7002ac8bf0047e8b7002cc8bf0096
:100b300048e8b7002ec8bf0049e8b70030c8bf007a
:100b40004ae8b70032c8bf004be8b70034c8bf005e
:100b50004ce8b70036c8bf004de8b70038c8bf0042
:100b60004ee8b7003ac8bf004fe8b7003cc8bf0026
:100b700050e8b7003ec8bf0051e8b70040c8bf000a
:100b800052e8b70023c8bf0053e8b70025c8bf002c
:100b900054e8b70027c8bf0055e8b70029c8bf0010
:100ba00056e8b7002bc8bf0057e8b7002dc8bf00f4
:100bb00058e8b7002fc8bf0059e8b70031c8bf00d8
:100bc0005ae8b70033c8bf005be8b70035c8bf00bc
:100bd0005ce8b70037c8bf005de8b70039c8bf00a0
:100be0005ee8b7003bc8bf005fe8b7003dc8bf0084
:100bf00060e8b7003fc8bf0061e8b70041c8bf0068
:100c000062e8b7000080fa00000006003600f80035
:100c1000809fbe00829fbe00849fbe00869fbe0054
:100c20003400f80000002000a00188000200fa0053
:100c30008560a900020037003bfe0700004f7800e6
:100c400042fe07000004e000fbff3a0042c8bf007c
:100c50009e4f100005003a0000c8bf008080fb00d6
:100c600020802000008040001e4878000080fa00ac
:100c70003400f9004f03be004f02be004f01be001a
:100c80004f00be003600f900004006003600f800b4
:100c9000809fbe00829fbe00849fbe00869fbe00d4
:100ca0003400f80000002000a00188000200fa00d3
:100cb0000000eb0028fe07008460a90000c8bf0008
:100cc000ff4f500016003a000040eb00004f780044
:100cd0000e0037001e81fb009e80fb00208020005c
:100ce00000804000904078002082200000004100f9
:100cf000014878009e80fb0020802000808040001a
:100d00000040eb00804878001e4fe800f0c0b300c0
:100d10009e4f1000efff360010c0b30001e8b7008f
:100d200068ff07000080fa003400f9004f03be009e
:100d30004f02be004f01be004f00be003600f9005a
:100d4000004006000000fa00a5fe0700c202a8004d
:100d5000f0c1b30042e8b7000000370001c8bf008f
:100d6000e14f5000fdff3a0065ff07000040eb0037
:080d700001e8b700f9ff3700ac
:020000040000fa
:100d7800000800004200000002000000000000001f
:100d8800000000000000000000000000000000005b
:100d9800000000000000000000000000000000004b
:100da800000000000000000000000000000000003b
:100db800000000000000000000000000000000002b
:100dc800000000000000000000000000000000001b
:100dd800000000004208000022000000000000009f
:100de800640800000400000000000000000000008b
:00000001FF
