:020000040000fa
:080000000002040000000000f2
:020000040000fa
:100400004f8020000e7f22000e01880000000000b7
:100410000c000700c0492000010020001100070067
:10042000000020000000e000020032000000020096
:1004300000000000a4040200000000000040da00f8
:100440000000fe004440a900000020000000e00081
:100450000300320000002000a00188004440a800f2
:100460000000060091018800800078000000eb0089
:1004700015003700e280400032a0b4009101ba00bc
:10048000e280400032a0b4009102ba00e280400055
:1004900032a0b4000002eb00472bde00f507b200eb
:1004a000602ce10004003a000059eb008301e900f0
:1004b000fdff3e00040037006128e100010032002a
:1004c0000082eb00040007001101ba000200e00006
:1004d000e8ff3a00000006003159ba008301e90044
:1004e0000c0032002159ba008301e90008003200f3
:1004f0000400e00003003a00e280400032a0b400b3
:10050000f5ff370011d9ba008301e900faff3a007c
:100510008100e800e180400032a0b4000000060045
:100520000040da000000fe0042118800001188003f
:1005300011118800000006008560a9008580a900cf
:10054000e7416000c419dd00910a20009140780065
:10055000f2c8b30082c0600083c070008000fd005c
:10056000a9e0b7008000fd00800178000307b20019
:10057000c419de00a10a20009140780082cfb300a8
:1005800082c0600083c070008000fd00aae0b70058
:100590008000fd00680160004311de004311dd00b2
:1005a00051092000914078000134a10082c0700000
:1005b0008000fd0095e0b7008000fd000008b2005b
:1005c0004700de004400dd00510920009140780022
:1005d0000144a10080c070000100780095e0b700e0
:1005e000000006002110880030108800000006007e
:1005f0008600a9008620a900e7416000c10a20000a
:100600009140780082cfb30082c0600083c0700048
:100610008000fd00ace0b7008000fd0001c7b30022
:1006200081416000c10a200091407800f2c8b30007
:1006300082c0600083c070008000fd00ace0b700a5
:100640008000fd00680160004311de0061092000a8
:10065000914078000104a10082c070008000fd007c
:1006600096e0b7008000fd000008b2004700de0001
:100670000040400061092000914078000114a10071
:1006800080c070000100780096e0b700000006000e
:020000040000fa
:0200000401f009
:04000c00f8ff0000f9
:020000040000fa
:0200000401f009
:040010007fff00006e
:020000040000fa
:1000080090020000900200009002000090020000a0
:100018009002000090020000900200009002000090
:100028009002000090020000900200009002000080
:100038009002000090020000900200009002000070
:020000040000fa
:020000040000fa
:100690000400fa0090022000303a880044c7bf00ee
:1006a000f043b20044e7b700417420009140780065
:1006b00000ceb30000c0600044e7b7001200200085
:1006c00081072000a00920003374200081497800b0
:1006d00080497800824978001200200061042000df
:1006e000700520002374200081497800804978003b
:1006f0008249780043c7bf000047b200f04f500066
:10070000fcff3a0042c7bf000042b2000004e00014
:10071000fcff3200b0472700e121240000408800a0
:100720001140880000c62f0000168800b0702c0011
:10073000401688008000200080168800802020005d
:10074000100798001e019000d175210000692c004f
:1007500075ff0700e0f52f0077ff07000000eb00b2
:10076000000f78009e007800d0a12f009dff0700a9
:10077000f0f02f009eff07000080fa000000060046
:100780000200fa00004f78001e00fb0061006000cc
:100790000004e00002003200d322a800010037006c
:1007a000d322a9001e00fb000000d1006100600000
:1007b0000004e00002003200d302a800010037006c
:1007c000d302a9001e00fb004200de0061006000b1
:1007d0000004e00002003200d2e2a800010037006d
:1007e000d2e2a9001e00fb004300de0061006000b1
:1007f0000004e00002003200d2c2a800010037006d
:10080000d2c2a9001e00fb004400de0061006000af
:100810000004e00002003200cae2a8000100370034
:10082000cae2a9001e00fb004500de006100600076
:100830000004e00002003200cac2a8000100370034
:10084000cac2a9001e00fb004600de006100600075
:100850000004e00002003200caa2a8000100370034
:10086000caa2a9001e04e00002003d00d2a2a80016
:1008700001003700d2a2a9001e00fb004800de00e4
:10088000610060000004e00002003200d282a80093
:1008900001003700d282a9000080fa0000000600a3
:1008a0000200fa00004f780010c0b3009e4f100005
:1008b000020032001e04e0000a003a001e407800e8
:1008c00061406000614060004201dd00312c200089
:1008d00091407800b0cfb30000c0600002407000cb
:1008e000c3e2b7000080fa00000006000200fa0030
:1008f000004f780010c0b3009e4f1000020032007d
:100900001e04e0000a003a001e40780061406000ca
:10091000614060004401dd00212c200091407800fe
:10092000f0ceb30000c0600002407000c2e2b70029
:080930000080fa00000006003f
:020000040000fa
:1009380000080000040000000000000000000000a3
:020000040000fa
:0c0948000000fa0050ff0700ffff37001e
:00000001FF
